{
  "_format": "hh-sol-artifact-1",
  "contractName": "JobMarketplace",
  "sourceName": "contracts/JobMarketPlace.sol",
  "abi": [
    {
      "anonymous": false,
      "inputs": [
        {
          "indexed": false,
          "internalType": "uint256",
          "name": "jobId",
          "type": "uint256"
        },
        {
          "indexed": false,
          "internalType": "address",
          "name": "bidder",
          "type": "address"
        },
        {
          "indexed": false,
          "internalType": "uint256",
          "name": "amount",
          "type": "uint256"
        }
      ],
      "name": "BidAccepted",
      "type": "event"
    },
    {
      "anonymous": false,
      "inputs": [
        {
          "indexed": false,
          "internalType": "uint256",
          "name": "jobId",
          "type": "uint256"
        },
        {
          "indexed": false,
          "internalType": "address",
          "name": "bidder",
          "type": "address"
        },
        {
          "indexed": false,
          "internalType": "uint256",
          "name": "amount",
          "type": "uint256"
        }
      ],
      "name": "BidPlaced",
      "type": "event"
    },
    {
      "anonymous": false,
      "inputs": [
        {
          "indexed": false,
          "internalType": "uint256",
          "name": "jobId",
          "type": "uint256"
        },
        {
          "indexed": false,
          "internalType": "address",
          "name": "employer",
          "type": "address"
        },
        {
          "indexed": false,
          "internalType": "uint256",
          "name": "budget",
          "type": "uint256"
        }
      ],
      "name": "JobPosted",
      "type": "event"
    },
    {
      "inputs": [
        {
          "internalType": "uint256",
          "name": "jobId",
          "type": "uint256"
        },
        {
          "internalType": "uint256",
          "name": "bidIndex",
          "type": "uint256"
        }
      ],
      "name": "acceptBid",
      "outputs": [],
      "stateMutability": "nonpayable",
      "type": "function"
    },
    {
      "inputs": [],
      "name": "getAllJobs",
      "outputs": [
        {
          "components": [
            {
              "internalType": "uint256",
              "name": "id",
              "type": "uint256"
            },
            {
              "internalType": "address payable",
              "name": "employer",
              "type": "address"
            },
            {
              "internalType": "string",
              "name": "description",
              "type": "string"
            },
            {
              "internalType": "uint256",
              "name": "budget",
              "type": "uint256"
            },
            {
              "internalType": "bool",
              "name": "isCompleted",
              "type": "bool"
            },
            {
              "components": [
                {
                  "internalType": "address",
                  "name": "bidder",
                  "type": "address"
                },
                {
                  "internalType": "uint256",
                  "name": "amount",
                  "type": "uint256"
                },
                {
                  "internalType": "bool",
                  "name": "accepted",
                  "type": "bool"
                }
              ],
              "internalType": "struct JobMarketplace.Bid[]",
              "name": "bids",
              "type": "tuple[]"
            }
          ],
          "internalType": "struct JobMarketplace.Job[]",
          "name": "",
          "type": "tuple[]"
        }
      ],
      "stateMutability": "view",
      "type": "function"
    },
    {
      "inputs": [
        {
          "internalType": "uint256",
          "name": "jobId",
          "type": "uint256"
        }
      ],
      "name": "getBids",
      "outputs": [
        {
          "components": [
            {
              "internalType": "address",
              "name": "bidder",
              "type": "address"
            },
            {
              "internalType": "uint256",
              "name": "amount",
              "type": "uint256"
            },
            {
              "internalType": "bool",
              "name": "accepted",
              "type": "bool"
            }
          ],
          "internalType": "struct JobMarketplace.Bid[]",
          "name": "",
          "type": "tuple[]"
        }
      ],
      "stateMutability": "view",
      "type": "function"
    },
    {
      "inputs": [],
      "name": "getMyJobs",
      "outputs": [
        {
          "components": [
            {
              "internalType": "uint256",
              "name": "id",
              "type": "uint256"
            },
            {
              "internalType": "address payable",
              "name": "employer",
              "type": "address"
            },
            {
              "internalType": "string",
              "name": "description",
              "type": "string"
            },
            {
              "internalType": "uint256",
              "name": "budget",
              "type": "uint256"
            },
            {
              "internalType": "bool",
              "name": "isCompleted",
              "type": "bool"
            },
            {
              "components": [
                {
                  "internalType": "address",
                  "name": "bidder",
                  "type": "address"
                },
                {
                  "internalType": "uint256",
                  "name": "amount",
                  "type": "uint256"
                },
                {
                  "internalType": "bool",
                  "name": "accepted",
                  "type": "bool"
                }
              ],
              "internalType": "struct JobMarketplace.Bid[]",
              "name": "bids",
              "type": "tuple[]"
            }
          ],
          "internalType": "struct JobMarketplace.Job[]",
          "name": "",
          "type": "tuple[]"
        }
      ],
      "stateMutability": "view",
      "type": "function"
    },
    {
      "inputs": [],
      "name": "getMyJobsAndApplications",
      "outputs": [
        {
          "components": [
            {
              "internalType": "uint256",
              "name": "id",
              "type": "uint256"
            },
            {
              "internalType": "address payable",
              "name": "employer",
              "type": "address"
            },
            {
              "internalType": "string",
              "name": "description",
              "type": "string"
            },
            {
              "internalType": "uint256",
              "name": "budget",
              "type": "uint256"
            },
            {
              "internalType": "bool",
              "name": "isCompleted",
              "type": "bool"
            },
            {
              "components": [
                {
                  "internalType": "address",
                  "name": "bidder",
                  "type": "address"
                },
                {
                  "internalType": "uint256",
                  "name": "amount",
                  "type": "uint256"
                },
                {
                  "internalType": "bool",
                  "name": "accepted",
                  "type": "bool"
                }
              ],
              "internalType": "struct JobMarketplace.Bid[]",
              "name": "bids",
              "type": "tuple[]"
            }
          ],
          "internalType": "struct JobMarketplace.Job[]",
          "name": "",
          "type": "tuple[]"
        }
      ],
      "stateMutability": "view",
      "type": "function"
    },
    {
      "inputs": [],
      "name": "jobCounter",
      "outputs": [
        {
          "internalType": "uint256",
          "name": "",
          "type": "uint256"
        }
      ],
      "stateMutability": "view",
      "type": "function"
    },
    {
      "inputs": [
        {
          "internalType": "uint256",
          "name": "",
          "type": "uint256"
        }
      ],
      "name": "jobs",
      "outputs": [
        {
          "internalType": "uint256",
          "name": "id",
          "type": "uint256"
        },
        {
          "internalType": "address payable",
          "name": "employer",
          "type": "address"
        },
        {
          "internalType": "string",
          "name": "description",
          "type": "string"
        },
        {
          "internalType": "uint256",
          "name": "budget",
          "type": "uint256"
        },
        {
          "internalType": "bool",
          "name": "isCompleted",
          "type": "bool"
        }
      ],
      "stateMutability": "view",
      "type": "function"
    },
    {
      "inputs": [
        {
          "internalType": "uint256",
          "name": "jobId",
          "type": "uint256"
        },
        {
          "internalType": "uint256",
          "name": "amount",
          "type": "uint256"
        }
      ],
      "name": "placeBid",
      "outputs": [],
      "stateMutability": "nonpayable",
      "type": "function"
    },
    {
      "inputs": [
        {
          "internalType": "string",
          "name": "_description",
          "type": "string"
        }
      ],
      "name": "postJob",
      "outputs": [],
      "stateMutability": "payable",
      "type": "function"
    }
  ],
  "bytecode": "0x6080604052348015600f57600080fd5b506128488061001f6000396000f3fe6080604052600436106100865760003560e01c806327a6d1d71161005957806327a6d1d71461015d57806350355d761461017957806357c90de5146101a4578063965a79fb146101cd5780639b00214c146101f857610086565b806302e9d5e41461008b578063131d9a27146100b4578063180aedf3146100f1578063262ce7a714610132575b600080fd5b34801561009757600080fd5b506100b260048036038101906100ad919061195f565b610223565b005b3480156100c057600080fd5b506100db60048036038101906100d6919061199f565b610695565b6040516100e89190611b28565b60405180910390f35b3480156100fd57600080fd5b506101186004803603810190610113919061199f565b61082a565b604051610129959493929190611c19565b60405180910390f35b34801561013e57600080fd5b50610147610915565b6040516101549190611e8d565b60405180910390f35b61017760048036038101906101729190611fe4565b610e41565b005b34801561018557600080fd5b5061018e610f7a565b60405161019b919061202d565b60405180910390f35b3480156101b057600080fd5b506101cb60048036038101906101c6919061195f565b610f80565b005b3480156101d957600080fd5b506101e261123e565b6040516101ef9190611e8d565b60405180910390f35b34801561020457600080fd5b5061020d6114fd565b60405161021a9190611e8d565b60405180910390f35b600073ffffffffffffffffffffffffffffffffffffffff166001600084815260200190815260200160002060010160009054906101000a900473ffffffffffffffffffffffffffffffffffffffff1673ffffffffffffffffffffffffffffffffffffffff16036102c8576040517f08c379a00000000000000000000000000000000000000000000000000000000081526004016102bf90612094565b60405180910390fd5b6001600083815260200190815260200160002060040160009054906101000a900460ff161561032c576040517f08c379a000000000000000000000000000000000000000000000000000000000815260040161032390612100565b60405180910390fd5b3373ffffffffffffffffffffffffffffffffffffffff166001600084815260200190815260200160002060010160009054906101000a900473ffffffffffffffffffffffffffffffffffffffff1673ffffffffffffffffffffffffffffffffffffffff16146103d0576040517f08c379a00000000000000000000000000000000000000000000000000000000081526004016103c79061216c565b60405180910390fd5b600060016000848152602001908152602001600020905080600501805490508210610430576040517f08c379a0000000000000000000000000000000000000000000000000000000008152600401610427906121d8565b60405180910390fd5b6000816005018381548110610448576104476121f8565b5b906000526020600020906003020190508060020160009054906101000a900460ff16156104aa576040517f08c379a00000000000000000000000000000000000000000000000000000000081526004016104a190612273565b60405180910390fd5b8160030154816001015411156104f5576040517f08c379a00000000000000000000000000000000000000000000000000000000081526004016104ec906122df565b60405180910390fd5b60018160020160006101000a81548160ff02191690831515021790555060018260040160006101000a81548160ff0219169083151502179055508060000160009054906101000a900473ffffffffffffffffffffffffffffffffffffffff1673ffffffffffffffffffffffffffffffffffffffff166108fc82600101549081150290604051600060405180830381858888f1935050505015801561059d573d6000803e3d6000fd5b506000816001015483600301546105b4919061232e565b9050600081111561062b578260010160009054906101000a900473ffffffffffffffffffffffffffffffffffffffff1673ffffffffffffffffffffffffffffffffffffffff166108fc829081150290604051600060405180830381858888f19350505050158015610629573d6000803e3d6000fd5b505b7f91a721693afff25f233ac308edbd2fa15ad7d4dfacdd164dd4e8c57ab72f4ae9858360000160009054906101000a900473ffffffffffffffffffffffffffffffffffffffff16846001015460405161068693929190612371565b60405180910390a15050505050565b6060600073ffffffffffffffffffffffffffffffffffffffff166001600084815260200190815260200160002060010160009054906101000a900473ffffffffffffffffffffffffffffffffffffffff1673ffffffffffffffffffffffffffffffffffffffff160361073c576040517f08c379a000000000000000000000000000000000000000000000000000000000815260040161073390612094565b60405180910390fd5b60016000838152602001908152602001600020600501805480602002602001604051908101604052809291908181526020016000905b8282101561081f57838290600052602060002090600302016040518060600160405290816000820160009054906101000a900473ffffffffffffffffffffffffffffffffffffffff1673ffffffffffffffffffffffffffffffffffffffff1673ffffffffffffffffffffffffffffffffffffffff168152602001600182015481526020016002820160009054906101000a900460ff16151515158152505081526020019060010190610772565b505050509050919050565b60016020528060005260406000206000915090508060000154908060010160009054906101000a900473ffffffffffffffffffffffffffffffffffffffff1690806002018054610879906123d7565b80601f01602080910402602001604051908101604052809291908181526020018280546108a5906123d7565b80156108f25780601f106108c7576101008083540402835291602001916108f2565b820191906000526020600020905b8154815290600101906020018083116108d557829003601f168201915b5050505050908060030154908060040160009054906101000a900460ff16905085565b6060600080600190505b6000548111610a6b5760006001600083815260200190815260200160002090503373ffffffffffffffffffffffffffffffffffffffff168160010160009054906101000a900473ffffffffffffffffffffffffffffffffffffffff1673ffffffffffffffffffffffffffffffffffffffff16036109a95782806109a190612408565b935050610a57565b60005b8160050180549050811015610a55573373ffffffffffffffffffffffffffffffffffffffff168260050182815481106109e8576109e76121f8565b5b906000526020600020906003020160000160009054906101000a900473ffffffffffffffffffffffffffffffffffffffff1673ffffffffffffffffffffffffffffffffffffffff1603610a48578380610a4090612408565b945050610a55565b80806001019150506109ac565b505b508080610a6390612408565b91505061091f565b5060008167ffffffffffffffff811115610a8857610a87611eb9565b5b604051908082528060200260200182016040528015610ac157816020015b610aae6118c7565b815260200190600190039081610aa65790505b509050600080600190505b6000548111610e3757600060016000838152602001908152602001600020905060003373ffffffffffffffffffffffffffffffffffffffff168260010160009054906101000a900473ffffffffffffffffffffffffffffffffffffffff1673ffffffffffffffffffffffffffffffffffffffff1603610b4e5760019050610bf2565b60005b8260050180549050811015610bf0573373ffffffffffffffffffffffffffffffffffffffff16836005018281548110610b8d57610b8c6121f8565b5b906000526020600020906003020160000160009054906101000a900473ffffffffffffffffffffffffffffffffffffffff1673ffffffffffffffffffffffffffffffffffffffff1603610be35760019150610bf0565b8080600101915050610b51565b505b8015610e2257816040518060c0016040529081600082015481526020016001820160009054906101000a900473ffffffffffffffffffffffffffffffffffffffff1673ffffffffffffffffffffffffffffffffffffffff1673ffffffffffffffffffffffffffffffffffffffff168152602001600282018054610c74906123d7565b80601f0160208091040260200160405190810160405280929190818152602001828054610ca0906123d7565b8015610ced5780601f10610cc257610100808354040283529160200191610ced565b820191906000526020600020905b815481529060010190602001808311610cd057829003601f168201915b50505050508152602001600382015481526020016004820160009054906101000a900460ff1615151515815260200160058201805480602002602001604051908101604052809291908181526020016000905b82821015610ded57838290600052602060002090600302016040518060600160405290816000820160009054906101000a900473ffffffffffffffffffffffffffffffffffffffff1673ffffffffffffffffffffffffffffffffffffffff1673ffffffffffffffffffffffffffffffffffffffff168152602001600182015481526020016002820160009054906101000a900460ff16151515158152505081526020019060010190610d40565b5050505081525050858581518110610e0857610e076121f8565b5b60200260200101819052508380610e1e90612408565b9450505b50508080610e2f90612408565b915050610acc565b5081935050505090565b60003411610e84576040517f08c379a0000000000000000000000000000000000000000000000000000000008152600401610e7b9061249c565b60405180910390fd5b600080815480929190610e9690612408565b91905055506000600160008054815260200190815260200160002090506000548160000181905550338160010160006101000a81548173ffffffffffffffffffffffffffffffffffffffff021916908373ffffffffffffffffffffffffffffffffffffffff16021790555081816002019081610f129190612668565b5034816003018190555060008160040160006101000a81548160ff0219169083151502179055507fe6f2f347838fc981db964da8bbb1855db0ed5008037096e90da474c23b0f432b6000543334604051610f6e93929190612371565b60405180910390a15050565b60005481565b600073ffffffffffffffffffffffffffffffffffffffff166001600084815260200190815260200160002060010160009054906101000a900473ffffffffffffffffffffffffffffffffffffffff1673ffffffffffffffffffffffffffffffffffffffff1603611025576040517f08c379a000000000000000000000000000000000000000000000000000000000815260040161101c90612094565b60405180910390fd5b6001600083815260200190815260200160002060040160009054906101000a900460ff1615611089576040517f08c379a000000000000000000000000000000000000000000000000000000000815260040161108090612100565b60405180910390fd5b6000600160008481526020019081526020016000209050600082116110e3576040517f08c379a00000000000000000000000000000000000000000000000000000000081526004016110da90612786565b60405180910390fd5b806003015482111561112a576040517f08c379a0000000000000000000000000000000000000000000000000000000008152600401611121906127f2565b60405180910390fd5b8060050160405180606001604052803373ffffffffffffffffffffffffffffffffffffffff16815260200184815260200160001515815250908060018154018082558091505060019003906000526020600020906003020160009091909190915060008201518160000160006101000a81548173ffffffffffffffffffffffffffffffffffffffff021916908373ffffffffffffffffffffffffffffffffffffffff1602179055506020820151816001015560408201518160020160006101000a81548160ff02191690831515021790555050507f0e54eff26401bf69b81b26f60bd85ef47f5d85275c1d268d84f68d6897431c4783338460405161123193929190612371565b60405180910390a1505050565b60606000805467ffffffffffffffff81111561125d5761125c611eb9565b5b60405190808252806020026020018201604052801561129657816020015b6112836118c7565b81526020019060019003908161127b5790505b5090506000600190505b60005481116114f557600160008281526020019081526020016000206040518060c0016040529081600082015481526020016001820160009054906101000a900473ffffffffffffffffffffffffffffffffffffffff1673ffffffffffffffffffffffffffffffffffffffff1673ffffffffffffffffffffffffffffffffffffffff168152602001600282018054611337906123d7565b80601f0160208091040260200160405190810160405280929190818152602001828054611363906123d7565b80156113b05780601f10611385576101008083540402835291602001916113b0565b820191906000526020600020905b81548152906001019060200180831161139357829003601f168201915b50505050508152602001600382015481526020016004820160009054906101000a900460ff1615151515815260200160058201805480602002602001604051908101604052809291908181526020016000905b828210156114b057838290600052602060002090600302016040518060600160405290816000820160009054906101000a900473ffffffffffffffffffffffffffffffffffffffff1673ffffffffffffffffffffffffffffffffffffffff1673ffffffffffffffffffffffffffffffffffffffff168152602001600182015481526020016002820160009054906101000a900460ff16151515158152505081526020019060010190611403565b5050505081525050826001836114c6919061232e565b815181106114d7576114d66121f8565b5b602002602001018190525080806114ed90612408565b9150506112a0565b508091505090565b6060600080600190505b600054811161159b573373ffffffffffffffffffffffffffffffffffffffff166001600083815260200190815260200160002060010160009054906101000a900473ffffffffffffffffffffffffffffffffffffffff1673ffffffffffffffffffffffffffffffffffffffff160361158857818061158490612408565b9250505b808061159390612408565b915050611507565b5060008167ffffffffffffffff8111156115b8576115b7611eb9565b5b6040519080825280602002602001820160405280156115f157816020015b6115de6118c7565b8152602001906001900390816115d65790505b509050600080600190505b60005481116118bd573373ffffffffffffffffffffffffffffffffffffffff166001600083815260200190815260200160002060010160009054906101000a900473ffffffffffffffffffffffffffffffffffffffff1673ffffffffffffffffffffffffffffffffffffffff16036118aa57600160008281526020019081526020016000206040518060c0016040529081600082015481526020016001820160009054906101000a900473ffffffffffffffffffffffffffffffffffffffff1673ffffffffffffffffffffffffffffffffffffffff1673ffffffffffffffffffffffffffffffffffffffff1681526020016002820180546116fc906123d7565b80601f0160208091040260200160405190810160405280929190818152602001828054611728906123d7565b80156117755780601f1061174a57610100808354040283529160200191611775565b820191906000526020600020905b81548152906001019060200180831161175857829003601f168201915b50505050508152602001600382015481526020016004820160009054906101000a900460ff1615151515815260200160058201805480602002602001604051908101604052809291908181526020016000905b8282101561187557838290600052602060002090600302016040518060600160405290816000820160009054906101000a900473ffffffffffffffffffffffffffffffffffffffff1673ffffffffffffffffffffffffffffffffffffffff1673ffffffffffffffffffffffffffffffffffffffff168152602001600182015481526020016002820160009054906101000a900460ff161515151581525050815260200190600101906117c8565b50505050815250508383815181106118905761188f6121f8565b5b602002602001018190525081806118a690612408565b9250505b80806118b590612408565b9150506115fc565b5081935050505090565b6040518060c0016040528060008152602001600073ffffffffffffffffffffffffffffffffffffffff1681526020016060815260200160008152602001600015158152602001606081525090565b6000604051905090565b600080fd5b600080fd5b6000819050919050565b61193c81611929565b811461194757600080fd5b50565b60008135905061195981611933565b92915050565b600080604083850312156119765761197561191f565b5b60006119848582860161194a565b92505060206119958582860161194a565b9150509250929050565b6000602082840312156119b5576119b461191f565b5b60006119c38482850161194a565b91505092915050565b600081519050919050565b600082825260208201905092915050565b6000819050602082019050919050565b600073ffffffffffffffffffffffffffffffffffffffff82169050919050565b6000611a23826119f8565b9050919050565b611a3381611a18565b82525050565b611a4281611929565b82525050565b60008115159050919050565b611a5d81611a48565b82525050565b606082016000820151611a796000850182611a2a565b506020820151611a8c6020850182611a39565b506040820151611a9f6040850182611a54565b50505050565b6000611ab18383611a63565b60608301905092915050565b6000602082019050919050565b6000611ad5826119cc565b611adf81856119d7565b9350611aea836119e8565b8060005b83811015611b1b578151611b028882611aa5565b9750611b0d83611abd565b925050600181019050611aee565b5085935050505092915050565b60006020820190508181036000830152611b428184611aca565b905092915050565b611b5381611929565b82525050565b6000611b64826119f8565b9050919050565b611b7481611b59565b82525050565b600081519050919050565b600082825260208201905092915050565b60005b83811015611bb4578082015181840152602081019050611b99565b60008484015250505050565b6000601f19601f8301169050919050565b6000611bdc82611b7a565b611be68185611b85565b9350611bf6818560208601611b96565b611bff81611bc0565b840191505092915050565b611c1381611a48565b82525050565b600060a082019050611c2e6000830188611b4a565b611c3b6020830187611b6b565b8181036040830152611c4d8186611bd1565b9050611c5c6060830185611b4a565b611c696080830184611c0a565b9695505050505050565b600081519050919050565b600082825260208201905092915050565b6000819050602082019050919050565b611ca881611b59565b82525050565b600082825260208201905092915050565b6000611cca82611b7a565b611cd48185611cae565b9350611ce4818560208601611b96565b611ced81611bc0565b840191505092915050565b600082825260208201905092915050565b6000611d14826119cc565b611d1e8185611cf8565b9350611d29836119e8565b8060005b83811015611d5a578151611d418882611aa5565b9750611d4c83611abd565b925050600181019050611d2d565b5085935050505092915050565b600060c083016000830151611d7f6000860182611a39565b506020830151611d926020860182611c9f565b5060408301518482036040860152611daa8282611cbf565b9150506060830151611dbf6060860182611a39565b506080830151611dd26080860182611a54565b5060a083015184820360a0860152611dea8282611d09565b9150508091505092915050565b6000611e038383611d67565b905092915050565b6000602082019050919050565b6000611e2382611c73565b611e2d8185611c7e565b935083602082028501611e3f85611c8f565b8060005b85811015611e7b5784840389528151611e5c8582611df7565b9450611e6783611e0b565b925060208a01995050600181019050611e43565b50829750879550505050505092915050565b60006020820190508181036000830152611ea78184611e18565b905092915050565b600080fd5b600080fd5b7f4e487b7100000000000000000000000000000000000000000000000000000000600052604160045260246000fd5b611ef182611bc0565b810181811067ffffffffffffffff82111715611f1057611f0f611eb9565b5b80604052505050565b6000611f23611915565b9050611f2f8282611ee8565b919050565b600067ffffffffffffffff821115611f4f57611f4e611eb9565b5b611f5882611bc0565b9050602081019050919050565b82818337600083830152505050565b6000611f87611f8284611f34565b611f19565b905082815260208101848484011115611fa357611fa2611eb4565b5b611fae848285611f65565b509392505050565b600082601f830112611fcb57611fca611eaf565b5b8135611fdb848260208601611f74565b91505092915050565b600060208284031215611ffa57611ff961191f565b5b600082013567ffffffffffffffff81111561201857612017611924565b5b61202484828501611fb6565b91505092915050565b60006020820190506120426000830184611b4a565b92915050565b7f4a6f6220646f6573206e6f742065786973742e00000000000000000000000000600082015250565b600061207e601383611b85565b915061208982612048565b602082019050919050565b600060208201905081810360008301526120ad81612071565b9050919050565b7f4a6f6220616c726561647920636f6d706c657465642e00000000000000000000600082015250565b60006120ea601683611b85565b91506120f5826120b4565b602082019050919050565b60006020820190508181036000830152612119816120dd565b9050919050565b7f4f6e6c7920656d706c6f7965722063616e20616363657074206269642e000000600082015250565b6000612156601d83611b85565b915061216182612120565b602082019050919050565b6000602082019050818103600083015261218581612149565b9050919050565b7f496e76616c69642062696420696e6465782e0000000000000000000000000000600082015250565b60006121c2601283611b85565b91506121cd8261218c565b602082019050919050565b600060208201905081810360008301526121f1816121b5565b9050919050565b7f4e487b7100000000000000000000000000000000000000000000000000000000600052603260045260246000fd5b7f42696420616c72656164792061636365707465642e0000000000000000000000600082015250565b600061225d601583611b85565b915061226882612227565b602082019050919050565b6000602082019050818103600083015261228c81612250565b9050919050565b7f416d6f756e74203e206a6f62206275646765743f000000000000000000000000600082015250565b60006122c9601483611b85565b91506122d482612293565b602082019050919050565b600060208201905081810360008301526122f8816122bc565b9050919050565b7f4e487b7100000000000000000000000000000000000000000000000000000000600052601160045260246000fd5b600061233982611929565b915061234483611929565b925082820390508181111561235c5761235b6122ff565b5b92915050565b61236b81611a18565b82525050565b60006060820190506123866000830186611b4a565b6123936020830185612362565b6123a06040830184611b4a565b949350505050565b7f4e487b7100000000000000000000000000000000000000000000000000000000600052602260045260246000fd5b600060028204905060018216806123ef57607f821691505b602082108103612402576124016123a8565b5b50919050565b600061241382611929565b91507fffffffffffffffffffffffffffffffffffffffffffffffffffffffffffffffff8203612445576124446122ff565b5b600182019050919050565b7f4d7573742073656e6420736f6d6520455448206173206275646765742e000000600082015250565b6000612486601d83611b85565b915061249182612450565b602082019050919050565b600060208201905081810360008301526124b581612479565b9050919050565b60008190508160005260206000209050919050565b60006020601f8301049050919050565b600082821b905092915050565b60006008830261251e7fffffffffffffffffffffffffffffffffffffffffffffffffffffffffffffffff826124e1565b61252886836124e1565b95508019841693508086168417925050509392505050565b6000819050919050565b600061256561256061255b84611929565b612540565b611929565b9050919050565b6000819050919050565b61257f8361254a565b61259361258b8261256c565b8484546124ee565b825550505050565b600090565b6125a861259b565b6125b3818484612576565b505050565b5b818110156125d7576125cc6000826125a0565b6001810190506125b9565b5050565b601f82111561261c576125ed816124bc565b6125f6846124d1565b81016020851015612605578190505b612619612611856124d1565b8301826125b8565b50505b505050565b600082821c905092915050565b600061263f60001984600802612621565b1980831691505092915050565b6000612658838361262e565b9150826002028217905092915050565b61267182611b7a565b67ffffffffffffffff81111561268a57612689611eb9565b5b61269482546123d7565b61269f8282856125db565b600060209050601f8311600181146126d257600084156126c0578287015190505b6126ca858261264c565b865550612732565b601f1984166126e0866124bc565b60005b82811015612708578489015182556001820191506020850194506020810190506126e3565b868310156127255784890151612721601f89168261262e565b8355505b6001600288020188555050505b505050505050565b7f426964206d757374206265203e20300000000000000000000000000000000000600082015250565b6000612770600f83611b85565b915061277b8261273a565b602082019050919050565b6000602082019050818103600083015261279f81612763565b9050919050565b7f426964206d757374206265203c3d206a6f622062756467657400000000000000600082015250565b60006127dc601983611b85565b91506127e7826127a6565b602082019050919050565b6000602082019050818103600083015261280b816127cf565b905091905056fea264697066735822122046e8d554f521638a7de963365d5b8f912602039dd3af6c5311c671737ed30f2064736f6c634300081b0033",
  "linkReferences": {},
  "deployedLinkReferences": {}
}