{
  "_format": "hh-sol-artifact-1",
  "contractName": "JobMarketplace",
  "sourceName": "contracts/JobMarketPlace.sol",
  "abi": [
    {
      "inputs": [
        {
          "internalType": "address",
          "name": "userProfileAddress",
          "type": "address"
        }
      ],
      "stateMutability": "nonpayable",
      "type": "constructor"
    },
    {
      "anonymous": false,
      "inputs": [
        {
          "indexed": false,
          "internalType": "uint256",
          "name": "jobId",
          "type": "uint256"
        },
        {
          "indexed": false,
          "internalType": "address",
          "name": "bidder",
          "type": "address"
        },
        {
          "indexed": false,
          "internalType": "uint256",
          "name": "amount",
          "type": "uint256"
        }
      ],
      "name": "BidAccepted",
      "type": "event"
    },
    {
      "anonymous": false,
      "inputs": [
        {
          "indexed": false,
          "internalType": "uint256",
          "name": "jobId",
          "type": "uint256"
        },
        {
          "indexed": false,
          "internalType": "address",
          "name": "bidder",
          "type": "address"
        },
        {
          "indexed": false,
          "internalType": "uint256",
          "name": "amount",
          "type": "uint256"
        }
      ],
      "name": "BidPlaced",
      "type": "event"
    },
    {
      "anonymous": false,
      "inputs": [
        {
          "indexed": false,
          "internalType": "uint256",
          "name": "jobId",
          "type": "uint256"
        },
        {
          "indexed": false,
          "internalType": "address",
          "name": "bidder",
          "type": "address"
        },
        {
          "indexed": false,
          "internalType": "uint256",
          "name": "amount",
          "type": "uint256"
        }
      ],
      "name": "BidWithdrawn",
      "type": "event"
    },
    {
      "anonymous": false,
      "inputs": [
        {
          "indexed": false,
          "internalType": "uint256",
          "name": "newCommission",
          "type": "uint256"
        }
      ],
      "name": "CommissionUpdated",
      "type": "event"
    },
    {
      "anonymous": false,
      "inputs": [
        {
          "indexed": false,
          "internalType": "uint256",
          "name": "jobId",
          "type": "uint256"
        },
        {
          "indexed": false,
          "internalType": "address",
          "name": "employer",
          "type": "address"
        },
        {
          "indexed": false,
          "internalType": "uint256",
          "name": "budget",
          "type": "uint256"
        }
      ],
      "name": "JobPosted",
      "type": "event"
    },
    {
      "inputs": [
        {
          "internalType": "uint256",
          "name": "jobId",
          "type": "uint256"
        },
        {
          "internalType": "uint256",
          "name": "bidIndex",
          "type": "uint256"
        }
      ],
      "name": "acceptBid",
      "outputs": [],
      "stateMutability": "nonpayable",
      "type": "function"
    },
    {
      "inputs": [
        {
          "internalType": "uint256",
          "name": "amount",
          "type": "uint256"
        }
      ],
      "name": "calculateCommission",
      "outputs": [
        {
          "internalType": "uint256",
          "name": "",
          "type": "uint256"
        }
      ],
      "stateMutability": "pure",
      "type": "function"
    },
    {
      "inputs": [
        {
          "internalType": "uint256",
          "name": "amount",
          "type": "uint256"
        }
      ],
      "name": "calculateCustomCommission",
      "outputs": [
        {
          "internalType": "uint256",
          "name": "",
          "type": "uint256"
        }
      ],
      "stateMutability": "view",
      "type": "function"
    },
    {
      "inputs": [],
      "name": "commissionPercentage",
      "outputs": [
        {
          "internalType": "uint256",
          "name": "",
          "type": "uint256"
        }
      ],
      "stateMutability": "view",
      "type": "function"
    },
    {
      "inputs": [],
      "name": "getAllJobs",
      "outputs": [
        {
          "components": [
            {
              "internalType": "uint256",
              "name": "id",
              "type": "uint256"
            },
            {
              "internalType": "address payable",
              "name": "employer",
              "type": "address"
            },
            {
              "internalType": "string",
              "name": "description",
              "type": "string"
            },
            {
              "internalType": "uint256",
              "name": "budget",
              "type": "uint256"
            },
            {
              "internalType": "bool",
              "name": "isCompleted",
              "type": "bool"
            },
            {
              "components": [
                {
                  "internalType": "address payable",
                  "name": "bidder",
                  "type": "address"
                },
                {
                  "internalType": "uint256",
                  "name": "amount",
                  "type": "uint256"
                },
                {
                  "internalType": "bool",
                  "name": "accepted",
                  "type": "bool"
                }
              ],
              "internalType": "struct JobMarketplace.Bid[]",
              "name": "bids",
              "type": "tuple[]"
            }
          ],
          "internalType": "struct JobMarketplace.Job[]",
          "name": "",
          "type": "tuple[]"
        }
      ],
      "stateMutability": "view",
      "type": "function"
    },
    {
      "inputs": [],
      "name": "jobCounter",
      "outputs": [
        {
          "internalType": "uint256",
          "name": "",
          "type": "uint256"
        }
      ],
      "stateMutability": "view",
      "type": "function"
    },
    {
      "inputs": [
        {
          "internalType": "uint256",
          "name": "",
          "type": "uint256"
        }
      ],
      "name": "jobs",
      "outputs": [
        {
          "internalType": "uint256",
          "name": "id",
          "type": "uint256"
        },
        {
          "internalType": "address payable",
          "name": "employer",
          "type": "address"
        },
        {
          "internalType": "string",
          "name": "description",
          "type": "string"
        },
        {
          "internalType": "uint256",
          "name": "budget",
          "type": "uint256"
        },
        {
          "internalType": "bool",
          "name": "isCompleted",
          "type": "bool"
        }
      ],
      "stateMutability": "view",
      "type": "function"
    },
    {
      "inputs": [],
      "name": "owner",
      "outputs": [
        {
          "internalType": "address",
          "name": "",
          "type": "address"
        }
      ],
      "stateMutability": "view",
      "type": "function"
    },
    {
      "inputs": [
        {
          "internalType": "uint256",
          "name": "jobId",
          "type": "uint256"
        },
        {
          "internalType": "uint256",
          "name": "amount",
          "type": "uint256"
        }
      ],
      "name": "placeBid",
      "outputs": [],
      "stateMutability": "nonpayable",
      "type": "function"
    },
    {
      "inputs": [
        {
          "internalType": "string",
          "name": "_description",
          "type": "string"
        }
      ],
      "name": "postJob",
      "outputs": [],
      "stateMutability": "payable",
      "type": "function"
    },
    {
      "inputs": [
        {
          "internalType": "uint256",
          "name": "newPercentage",
          "type": "uint256"
        }
      ],
      "name": "setCommissionPercentage",
      "outputs": [],
      "stateMutability": "nonpayable",
      "type": "function"
    },
    {
      "inputs": [],
      "name": "userProfileContract",
      "outputs": [
        {
          "internalType": "contract UserProfile",
          "name": "",
          "type": "address"
        }
      ],
      "stateMutability": "view",
      "type": "function"
    },
    {
      "inputs": [
        {
          "internalType": "uint256",
          "name": "jobId",
          "type": "uint256"
        }
      ],
      "name": "withdrawBid",
      "outputs": [],
      "stateMutability": "nonpayable",
      "type": "function"
    }
  ],
  "bytecode": "0x6080604052600560035534801561001557600080fd5b50604051612d97380380612d9783398181016040528101906100379190610122565b33600260006101000a81548173ffffffffffffffffffffffffffffffffffffffff021916908373ffffffffffffffffffffffffffffffffffffffff16021790555080600460006101000a81548173ffffffffffffffffffffffffffffffffffffffff021916908373ffffffffffffffffffffffffffffffffffffffff1602179055505061014f565b600080fd5b600073ffffffffffffffffffffffffffffffffffffffff82169050919050565b60006100ef826100c4565b9050919050565b6100ff816100e4565b811461010a57600080fd5b50565b60008151905061011c816100f6565b92915050565b600060208284031215610138576101376100bf565b5b60006101468482850161010d565b91505092915050565b612c398061015e6000396000f3fe6080604052600436106100c25760003560e01c806350355d761161007f578063965a79fb11610059578063965a79fb14610249578063cae1fba414610274578063ce9b4321146102b1578063d575fe64146102ee576100c2565b806350355d76146101ca57806357c90de5146101f55780638da5cb5b1461021e576100c2565b806302e9d5e4146100c75780630eaaf4c8146100f0578063180aedf3146101195780631c5f30991461015a57806327a6d1d71461018557806339b87c8f146101a1575b600080fd5b3480156100d357600080fd5b506100ee60048036038101906100e99190611729565b610319565b005b3480156100fc57600080fd5b5061011760048036038101906101129190611769565b6106e8565b005b34801561012557600080fd5b50610140600480360381019061013b9190611769565b610aa7565b604051610151959493929190611891565b60405180910390f35b34801561016657600080fd5b5061016f610b92565b60405161017c919061194a565b60405180910390f35b61019f600480360381019061019a9190611a9a565b610bb8565b005b3480156101ad57600080fd5b506101c860048036038101906101c39190611769565b610e78565b005b3480156101d657600080fd5b506101df610f8d565b6040516101ec9190611ae3565b60405180910390f35b34801561020157600080fd5b5061021c60048036038101906102179190611729565b610f93565b005b34801561022a57600080fd5b50610233611361565b6040516102409190611b1f565b60405180910390f35b34801561025557600080fd5b5061025e611387565b60405161026b9190611df4565b60405180910390f35b34801561028057600080fd5b5061029b60048036038101906102969190611769565b611646565b6040516102a89190611ae3565b60405180910390f35b3480156102bd57600080fd5b506102d860048036038101906102d39190611769565b611669565b6040516102e59190611ae3565b60405180910390f35b3480156102fa57600080fd5b5061030361168b565b6040516103109190611ae3565b60405180910390f35b813373ffffffffffffffffffffffffffffffffffffffff166001600083815260200190815260200160002060010160009054906101000a900473ffffffffffffffffffffffffffffffffffffffff1673ffffffffffffffffffffffffffffffffffffffff16146103be576040517f08c379a00000000000000000000000000000000000000000000000000000000081526004016103b590611e88565b60405180910390fd5b6001600084815260200190815260200160002060040160009054906101000a900460ff1615610422576040517f08c379a000000000000000000000000000000000000000000000000000000000815260040161041990611ef4565b60405180910390fd5b600060016000858152602001908152602001600020905080600501805490508310610482576040517f08c379a000000000000000000000000000000000000000000000000000000000815260040161047990611f60565b60405180910390fd5b600081600501848154811061049a57610499611f80565b5b906000526020600020906003020190508060020160009054906101000a900460ff16156104fc576040517f08c379a00000000000000000000000000000000000000000000000000000000081526004016104f390611ffb565b60405180910390fd5b816003015481600101541115610547576040517f08c379a000000000000000000000000000000000000000000000000000000000815260040161053e90612067565b60405180910390fd5b60018160020160006101000a81548160ff02191690831515021790555060018260040160006101000a81548160ff0219169083151502179055508060000160009054906101000a900473ffffffffffffffffffffffffffffffffffffffff1673ffffffffffffffffffffffffffffffffffffffff166108fc82600101549081150290604051600060405180830381858888f193505050501580156105ef573d6000803e3d6000fd5b5060008160010154836003015461060691906120b6565b9050600081111561067d578260010160009054906101000a900473ffffffffffffffffffffffffffffffffffffffff1673ffffffffffffffffffffffffffffffffffffffff166108fc829081150290604051600060405180830381858888f1935050505015801561067b573d6000803e3d6000fd5b505b7f91a721693afff25f233ac308edbd2fa15ad7d4dfacdd164dd4e8c57ab72f4ae9868360000160009054906101000a900473ffffffffffffffffffffffffffffffffffffffff1684600101546040516106d89392919061210b565b60405180910390a1505050505050565b6000600160008381526020019081526020016000209050600073ffffffffffffffffffffffffffffffffffffffff168160010160009054906101000a900473ffffffffffffffffffffffffffffffffffffffff1673ffffffffffffffffffffffffffffffffffffffff1603610792576040517f08c379a00000000000000000000000000000000000000000000000000000000081526004016107899061218e565b60405180910390fd5b8060040160009054906101000a900460ff16156107e4576040517f08c379a00000000000000000000000000000000000000000000000000000000081526004016107db90611ef4565b60405180910390fd5b60008060005b836005018054905081101561088c573373ffffffffffffffffffffffffffffffffffffffff1684600501828154811061082657610825611f80565b5b906000526020600020906003020160000160009054906101000a900473ffffffffffffffffffffffffffffffffffffffff1673ffffffffffffffffffffffffffffffffffffffff160361087f578092506001915061088c565b80806001019150506107ea565b50806108cd576040517f08c379a00000000000000000000000000000000000000000000000000000000081526004016108c4906121fa565b60405180910390fd5b60008360050183815481106108e5576108e4611f80565b5b9060005260206000209060030201600101549050836005016001856005018054905061091191906120b6565b8154811061092257610921611f80565b5b906000526020600020906003020184600501848154811061094657610945611f80565b5b90600052602060002090600302016000820160009054906101000a900473ffffffffffffffffffffffffffffffffffffffff168160000160006101000a81548173ffffffffffffffffffffffffffffffffffffffff021916908373ffffffffffffffffffffffffffffffffffffffff160217905550600182015481600101556002820160009054906101000a900460ff168160020160006101000a81548160ff02191690831515021790555090505083600501805480610a0957610a0861221a565b5b6001900381819060005260206000209060030201600080820160006101000a81549073ffffffffffffffffffffffffffffffffffffffff021916905560018201600090556002820160006101000a81549060ff0219169055505090557f8f8619524e8d462cead34604bd2247ede24175801481e4d0b8059ac8aa41c301853383604051610a9893929190612249565b60405180910390a15050505050565b60016020528060005260406000206000915090508060000154908060010160009054906101000a900473ffffffffffffffffffffffffffffffffffffffff1690806002018054610af6906122af565b80601f0160208091040260200160405190810160405280929190818152602001828054610b22906122af565b8015610b6f5780601f10610b4457610100808354040283529160200191610b6f565b820191906000526020600020905b815481529060010190602001808311610b5257829003601f168201915b5050505050908060030154908060040160009054906101000a900460ff16905085565b600460009054906101000a900473ffffffffffffffffffffffffffffffffffffffff1681565b6000600460009054906101000a900473ffffffffffffffffffffffffffffffffffffffff1673ffffffffffffffffffffffffffffffffffffffff16630f53a470336040518263ffffffff1660e01b8152600401610c159190611b1f565b600060405180830381865afa158015610c32573d6000803e3d6000fd5b505050506040513d6000823e3d601f19601f82011682018060405250810190610c5b9190612588565b90506000816000015151118015610c7757506000816020015151115b8015610c8857506000816040015151115b610cc7576040517f08c379a0000000000000000000000000000000000000000000000000000000008152600401610cbe90612643565b60405180910390fd5b60003411610d0a576040517f08c379a0000000000000000000000000000000000000000000000000000000008152600401610d01906126af565b60405180910390fd5b600080815480929190610d1c906126cf565b91905055506000600160008054815260200190815260200160002090506000548160000181905550338160010160006101000a81548173ffffffffffffffffffffffffffffffffffffffff021916908373ffffffffffffffffffffffffffffffffffffffff16021790555082816002019081610d9891906128b9565b5034816003018190555060008160040160006101000a81548160ff0219169083151502179055506000610dca34611646565b9050600260009054906101000a900473ffffffffffffffffffffffffffffffffffffffff1673ffffffffffffffffffffffffffffffffffffffff166108fc829081150290604051600060405180830381858888f19350505050158015610e34573d6000803e3d6000fd5b507fe6f2f347838fc981db964da8bbb1855db0ed5008037096e90da474c23b0f432b6000543334604051610e6a93929190612249565b60405180910390a150505050565b600260009054906101000a900473ffffffffffffffffffffffffffffffffffffffff1673ffffffffffffffffffffffffffffffffffffffff163373ffffffffffffffffffffffffffffffffffffffff1614610f08576040517f08c379a0000000000000000000000000000000000000000000000000000000008152600401610eff906129fd565b60405180910390fd5b6064811115610f4c576040517f08c379a0000000000000000000000000000000000000000000000000000000008152600401610f4390612a69565b60405180910390fd5b806003819055507f13f60dd2b588490608c3ff1932a3daeb4087f3d5af04b97e5c2a16b5b4c0302e81604051610f829190611ae3565b60405180910390a150565b60005481565b6000600460009054906101000a900473ffffffffffffffffffffffffffffffffffffffff1673ffffffffffffffffffffffffffffffffffffffff16630f53a470336040518263ffffffff1660e01b8152600401610ff09190611b1f565b600060405180830381865afa15801561100d573d6000803e3d6000fd5b505050506040513d6000823e3d601f19601f820116820180604052508101906110369190612588565b9050600081600001515111801561105257506000816020015151115b801561106357506000816040015151115b6110a2576040517f08c379a000000000000000000000000000000000000000000000000000000000815260040161109990612643565b60405180910390fd5b600073ffffffffffffffffffffffffffffffffffffffff166001600085815260200190815260200160002060010160009054906101000a900473ffffffffffffffffffffffffffffffffffffffff1673ffffffffffffffffffffffffffffffffffffffff1603611147576040517f08c379a000000000000000000000000000000000000000000000000000000000815260040161113e9061218e565b60405180910390fd5b6001600084815260200190815260200160002060040160009054906101000a900460ff16156111ab576040517f08c379a00000000000000000000000000000000000000000000000000000000081526004016111a290611ef4565b60405180910390fd5b600060016000858152602001908152602001600020905060008311611205576040517f08c379a00000000000000000000000000000000000000000000000000000000081526004016111fc90612ad5565b60405180910390fd5b806003015483111561124c576040517f08c379a000000000000000000000000000000000000000000000000000000000815260040161124390612b41565b60405180910390fd5b8060050160405180606001604052803373ffffffffffffffffffffffffffffffffffffffff16815260200185815260200160001515815250908060018154018082558091505060019003906000526020600020906003020160009091909190915060008201518160000160006101000a81548173ffffffffffffffffffffffffffffffffffffffff021916908373ffffffffffffffffffffffffffffffffffffffff1602179055506020820151816001015560408201518160020160006101000a81548160ff02191690831515021790555050507f0e54eff26401bf69b81b26f60bd85ef47f5d85275c1d268d84f68d6897431c4784338560405161135393929190612249565b60405180910390a150505050565b600260009054906101000a900473ffffffffffffffffffffffffffffffffffffffff1681565b60606000805467ffffffffffffffff8111156113a6576113a561196f565b5b6040519080825280602002602001820160405280156113df57816020015b6113cc611691565b8152602001906001900390816113c45790505b5090506000600190505b600054811161163e57600160008281526020019081526020016000206040518060c0016040529081600082015481526020016001820160009054906101000a900473ffffffffffffffffffffffffffffffffffffffff1673ffffffffffffffffffffffffffffffffffffffff1673ffffffffffffffffffffffffffffffffffffffff168152602001600282018054611480906122af565b80601f01602080910402602001604051908101604052809291908181526020018280546114ac906122af565b80156114f95780601f106114ce576101008083540402835291602001916114f9565b820191906000526020600020905b8154815290600101906020018083116114dc57829003601f168201915b50505050508152602001600382015481526020016004820160009054906101000a900460ff1615151515815260200160058201805480602002602001604051908101604052809291908181526020016000905b828210156115f957838290600052602060002090600302016040518060600160405290816000820160009054906101000a900473ffffffffffffffffffffffffffffffffffffffff1673ffffffffffffffffffffffffffffffffffffffff1673ffffffffffffffffffffffffffffffffffffffff168152602001600182015481526020016002820160009054906101000a900460ff1615151515815250508152602001906001019061154c565b50505050815250508260018361160f91906120b6565b815181106116205761161f611f80565b5b60200260200101819052508080611636906126cf565b9150506113e9565b508091505090565b60006064600354836116589190612b61565b6116629190612bd2565b9050919050565b6000606460058361167a9190612b61565b6116849190612bd2565b9050919050565b60035481565b6040518060c0016040528060008152602001600073ffffffffffffffffffffffffffffffffffffffff1681526020016060815260200160008152602001600015158152602001606081525090565b6000604051905090565b600080fd5b600080fd5b6000819050919050565b611706816116f3565b811461171157600080fd5b50565b600081359050611723816116fd565b92915050565b600080604083850312156117405761173f6116e9565b5b600061174e85828601611714565b925050602061175f85828601611714565b9150509250929050565b60006020828403121561177f5761177e6116e9565b5b600061178d84828501611714565b91505092915050565b61179f816116f3565b82525050565b600073ffffffffffffffffffffffffffffffffffffffff82169050919050565b60006117d0826117a5565b9050919050565b6117e0816117c5565b82525050565b600081519050919050565b600082825260208201905092915050565b60005b83811015611820578082015181840152602081019050611805565b60008484015250505050565b6000601f19601f8301169050919050565b6000611848826117e6565b61185281856117f1565b9350611862818560208601611802565b61186b8161182c565b840191505092915050565b60008115159050919050565b61188b81611876565b82525050565b600060a0820190506118a66000830188611796565b6118b360208301876117d7565b81810360408301526118c5818661183d565b90506118d46060830185611796565b6118e16080830184611882565b9695505050505050565b6000819050919050565b600061191061190b611906846117a5565b6118eb565b6117a5565b9050919050565b6000611922826118f5565b9050919050565b600061193482611917565b9050919050565b61194481611929565b82525050565b600060208201905061195f600083018461193b565b92915050565b600080fd5b600080fd5b7f4e487b7100000000000000000000000000000000000000000000000000000000600052604160045260246000fd5b6119a78261182c565b810181811067ffffffffffffffff821117156119c6576119c561196f565b5b80604052505050565b60006119d96116df565b90506119e5828261199e565b919050565b600067ffffffffffffffff821115611a0557611a0461196f565b5b611a0e8261182c565b9050602081019050919050565b82818337600083830152505050565b6000611a3d611a38846119ea565b6119cf565b905082815260208101848484011115611a5957611a5861196a565b5b611a64848285611a1b565b509392505050565b600082601f830112611a8157611a80611965565b5b8135611a91848260208601611a2a565b91505092915050565b600060208284031215611ab057611aaf6116e9565b5b600082013567ffffffffffffffff811115611ace57611acd6116ee565b5b611ada84828501611a6c565b91505092915050565b6000602082019050611af86000830184611796565b92915050565b6000611b09826117a5565b9050919050565b611b1981611afe565b82525050565b6000602082019050611b346000830184611b10565b92915050565b600081519050919050565b600082825260208201905092915050565b6000819050602082019050919050565b611b6f816116f3565b82525050565b611b7e816117c5565b82525050565b600082825260208201905092915050565b6000611ba0826117e6565b611baa8185611b84565b9350611bba818560208601611802565b611bc38161182c565b840191505092915050565b611bd781611876565b82525050565b600081519050919050565b600082825260208201905092915050565b6000819050602082019050919050565b606082016000820151611c1f6000850182611b75565b506020820151611c326020850182611b66565b506040820151611c456040850182611bce565b50505050565b6000611c578383611c09565b60608301905092915050565b6000602082019050919050565b6000611c7b82611bdd565b611c858185611be8565b9350611c9083611bf9565b8060005b83811015611cc1578151611ca88882611c4b565b9750611cb383611c63565b925050600181019050611c94565b5085935050505092915050565b600060c083016000830151611ce66000860182611b66565b506020830151611cf96020860182611b75565b5060408301518482036040860152611d118282611b95565b9150506060830151611d266060860182611b66565b506080830151611d396080860182611bce565b5060a083015184820360a0860152611d518282611c70565b9150508091505092915050565b6000611d6a8383611cce565b905092915050565b6000602082019050919050565b6000611d8a82611b3a565b611d948185611b45565b935083602082028501611da685611b56565b8060005b85811015611de25784840389528151611dc38582611d5e565b9450611dce83611d72565b925060208a01995050600181019050611daa565b50829750879550505050505092915050565b60006020820190508181036000830152611e0e8184611d7f565b905092915050565b7f4f6e6c792074686520656d706c6f7965722063616e20706572666f726d20746860008201527f697320616374696f6e2e00000000000000000000000000000000000000000000602082015250565b6000611e72602a836117f1565b9150611e7d82611e16565b604082019050919050565b60006020820190508181036000830152611ea181611e65565b9050919050565b7f4a6f6220616c726561647920636f6d706c657465642e00000000000000000000600082015250565b6000611ede6016836117f1565b9150611ee982611ea8565b602082019050919050565b60006020820190508181036000830152611f0d81611ed1565b9050919050565b7f496e76616c69642062696420696e6465782e0000000000000000000000000000600082015250565b6000611f4a6012836117f1565b9150611f5582611f14565b602082019050919050565b60006020820190508181036000830152611f7981611f3d565b9050919050565b7f4e487b7100000000000000000000000000000000000000000000000000000000600052603260045260246000fd5b7f42696420616c72656164792061636365707465642e0000000000000000000000600082015250565b6000611fe56015836117f1565b9150611ff082611faf565b602082019050919050565b6000602082019050818103600083015261201481611fd8565b9050919050565b7f416d6f756e742065786365656473206a6f62206275646765742e000000000000600082015250565b6000612051601a836117f1565b915061205c8261201b565b602082019050919050565b6000602082019050818103600083015261208081612044565b9050919050565b7f4e487b7100000000000000000000000000000000000000000000000000000000600052601160045260246000fd5b60006120c1826116f3565b91506120cc836116f3565b92508282039050818111156120e4576120e3612087565b5b92915050565b60006120f582611917565b9050919050565b612105816120ea565b82525050565b60006060820190506121206000830186611796565b61212d60208301856120fc565b61213a6040830184611796565b949350505050565b7f4a6f6220646f6573206e6f742065786973742e00000000000000000000000000600082015250565b60006121786013836117f1565b915061218382612142565b602082019050919050565b600060208201905081810360008301526121a78161216b565b9050919050565b7f4e6f2062696420666f756e6420666f72207468652063616c6c65722e00000000600082015250565b60006121e4601c836117f1565b91506121ef826121ae565b602082019050919050565b60006020820190508181036000830152612213816121d7565b9050919050565b7f4e487b7100000000000000000000000000000000000000000000000000000000600052603160045260246000fd5b600060608201905061225e6000830186611796565b61226b6020830185611b10565b6122786040830184611796565b949350505050565b7f4e487b7100000000000000000000000000000000000000000000000000000000600052602260045260246000fd5b600060028204905060018216806122c757607f821691505b6020821081036122da576122d9612280565b5b50919050565b600080fd5b600080fd5b60006122fd6122f8846119ea565b6119cf565b9050828152602081018484840111156123195761231861196a565b5b612324848285611802565b509392505050565b600082601f83011261234157612340611965565b5b81516123518482602086016122ea565b91505092915050565b600067ffffffffffffffff8211156123755761237461196f565b5b602082029050602081019050919050565b600080fd5b600061239e6123998461235a565b6119cf565b905080838252602082019050602084028301858111156123c1576123c0612386565b5b835b8181101561240857805167ffffffffffffffff8111156123e6576123e5611965565b5b8086016123f3898261232c565b855260208501945050506020810190506123c3565b5050509392505050565b600082601f83011261242757612426611965565b5b815161243784826020860161238b565b91505092915050565b600060c08284031215612456576124556122e0565b5b61246060c06119cf565b9050600082015167ffffffffffffffff8111156124805761247f6122e5565b5b61248c8482850161232c565b600083015250602082015167ffffffffffffffff8111156124b0576124af6122e5565b5b6124bc8482850161232c565b602083015250604082015167ffffffffffffffff8111156124e0576124df6122e5565b5b6124ec8482850161232c565b604083015250606082015167ffffffffffffffff8111156125105761250f6122e5565b5b61251c84828501612412565b606083015250608082015167ffffffffffffffff8111156125405761253f6122e5565b5b61254c84828501612412565b60808301525060a082015167ffffffffffffffff8111156125705761256f6122e5565b5b61257c8482850161232c565b60a08301525092915050565b60006020828403121561259e5761259d6116e9565b5b600082015167ffffffffffffffff8111156125bc576125bb6116ee565b5b6125c884828501612440565b91505092915050565b7f557365722070726f66696c6520697320696e636f6d706c6574652e204e616d6560008201527f2c2070686f6e652c20616e6420656d61696c206172652072657175697265642e602082015250565b600061262d6040836117f1565b9150612638826125d1565b604082019050919050565b6000602082019050818103600083015261265c81612620565b9050919050565b7f4d7573742073656e6420736f6d6520455448206173206275646765742e000000600082015250565b6000612699601d836117f1565b91506126a482612663565b602082019050919050565b600060208201905081810360008301526126c88161268c565b9050919050565b60006126da826116f3565b91507fffffffffffffffffffffffffffffffffffffffffffffffffffffffffffffffff820361270c5761270b612087565b5b600182019050919050565b60008190508160005260206000209050919050565b60006020601f8301049050919050565b600082821b905092915050565b6000600883026127797fffffffffffffffffffffffffffffffffffffffffffffffffffffffffffffffff8261273c565b612783868361273c565b95508019841693508086168417925050509392505050565b60006127b66127b16127ac846116f3565b6118eb565b6116f3565b9050919050565b6000819050919050565b6127d08361279b565b6127e46127dc826127bd565b848454612749565b825550505050565b600090565b6127f96127ec565b6128048184846127c7565b505050565b5b818110156128285761281d6000826127f1565b60018101905061280a565b5050565b601f82111561286d5761283e81612717565b6128478461272c565b81016020851015612856578190505b61286a6128628561272c565b830182612809565b50505b505050565b600082821c905092915050565b600061289060001984600802612872565b1980831691505092915050565b60006128a9838361287f565b9150826002028217905092915050565b6128c2826117e6565b67ffffffffffffffff8111156128db576128da61196f565b5b6128e582546122af565b6128f082828561282c565b600060209050601f8311600181146129235760008415612911578287015190505b61291b858261289d565b865550612983565b601f19841661293186612717565b60005b8281101561295957848901518255600182019150602085019450602081019050612934565b868310156129765784890151612972601f89168261287f565b8355505b6001600288020188555050505b505050505050565b7f4f6e6c7920746865206f776e65722063616e20706572666f726d20746869732060008201527f616374696f6e2e00000000000000000000000000000000000000000000000000602082015250565b60006129e76027836117f1565b91506129f28261298b565b604082019050919050565b60006020820190508181036000830152612a16816129da565b9050919050565b7f436f6d6d697373696f6e2063616e6e6f74206578636565642031303025000000600082015250565b6000612a53601d836117f1565b9150612a5e82612a1d565b602082019050919050565b60006020820190508181036000830152612a8281612a46565b9050919050565b7f426964206d757374206265203e20300000000000000000000000000000000000600082015250565b6000612abf600f836117f1565b9150612aca82612a89565b602082019050919050565b60006020820190508181036000830152612aee81612ab2565b9050919050565b7f426964206d757374206265203c3d206a6f622062756467657400000000000000600082015250565b6000612b2b6019836117f1565b9150612b3682612af5565b602082019050919050565b60006020820190508181036000830152612b5a81612b1e565b9050919050565b6000612b6c826116f3565b9150612b77836116f3565b9250828202612b85816116f3565b91508282048414831517612b9c57612b9b612087565b5b5092915050565b7f4e487b7100000000000000000000000000000000000000000000000000000000600052601260045260246000fd5b6000612bdd826116f3565b9150612be8836116f3565b925082612bf857612bf7612ba3565b5b82820490509291505056fea264697066735822122053f0a7df35e3182b1b909688cdbcb2232aea8b2617918f059f8f1bf8cd7f511c64736f6c634300081b0033",
  "linkReferences": {},
  "deployedLinkReferences": {}
}